:100000000C9464000C948C000C948C000C948C0068
:100010000C948C000C948C000C948C000C948C0030
:100020000C948C000C948C000C948C000C94F105B6
:100030000C948C000C948C000C948C000C948C0010
:100040000C94FF060C948C000C9418080C948C00F3
:100050000C948C000C948C000C948C000C948C00F0
:100060000C948C000C948C000000000024002700ED
:100070002A0000000000250028002B0000000000DE
:1000800023002600290004040404040404040202DA
:100090000202020203030303030301020408102007
:1000A0004080010204081020010204081020000012
:1000B0000007000201000003040600000000000029
:1000C0000000FE01AE069D0911241FBECFEFD4E053
:1000D000DEBFCDBF11E0A0E0B1E0E4E9F7E102C08E
:1000E00005900D92A637B107D9F712E0A6E7B1E067
:1000F00001C01D92AF37B107E1F710E0C8ECD0E0C6
:1001000004C02297FE010E94C40BC23CD107C9F76C
:100110000E94EA060C94C80B0C940000CF93DF9366
:10012000BC018230910510F462E070E0A0917D0284
:10013000B0917E02ED01E0E0F0E040E050E021C04F
:10014000888199818617970769F48A819B81309706
:1001500019F09383828304C090937E0280937D0282
:10016000FE0134C06817790738F44115510519F0BC
:100170008417950708F4AC01FE018A819B819C01DC
:10018000E9012097E9F641155105A9F1CA01861B3D
:10019000970B049708F4BA01E0E0F0E02AC08D91D3
:1001A0009C91119784179507F9F46417750781F4EA
:1001B00012968D919C911397309719F093838283B7
:1001C00004C090937E0280937D02FD0132964CC064
:1001D000CA01861B970BFD01E80FF91F619371930C
:1001E00002978D939C9340C0FD01828193819C0175
:1001F000D9011097A1F680917B0290917C02892B06
:1002000041F4809168019091690190937C02809300
:100210007B0240916A0150916B014115510541F4F7
:100220004DB75EB78091660190916701481B590BED
:1002300020917B0230917C02CA01821B930B8617AE
:10024000970780F0AB014E5F5F4F8417950750F022
:10025000420F531F50937C0240937B02F90161933C
:10026000719302C0E0E0F0E0CF01DF91CF910895FB
:10027000CF93DF93009709F450C0EC0122971B82C3
:100280001A82A0917D02B0917E02109709F140E0A0
:1002900050E0AC17BD0708F1BB83AA83FE01219192
:1002A0003191E20FF31FAE17BF0779F48D919C9146
:1002B0001197280F391F2E5F3F4F398328831296DD
:1002C0008D919C9113979B838A834115510571F4FD
:1002D000D0937E02C0937D0220C012968D919C9196
:1002E0001397AD01009711F0DC01D3CFFA01D3834E
:1002F000C28321913191E20FF31FCE17DF0769F41A
:1003000088819981280F391F2E5F3F4FFA01318371
:1003100020838A819B8193838283DF91CF9108958B
:10032000FB01DC014150504048F001900D9200204B
:10033000C9F701C01D9241505040E0F70895FC01FB
:1003400081E090E00190061609F4CF010020D1F77A
:1003500001970895FB0151915523A9F0BF01DC01DC
:100360004D9145174111E1F759F4CD01019000205D
:1003700049F04D9140154111C9F3FB014111EFCFF7
:1003800081E090E001970895FC01603DA9F0613D96
:1003900028F4603959F0603CA1F40BC0603E19F0BC
:1003A000643F79F40CC052A741A7089554A743A70E
:1003B000089556A745A7089550AB47A7089552AB97
:1003C00041AB0895FC01138214821582DC0180E0A8
:1003D00016961C9216978F5F11968032C9F716A257
:1003E00010A617A203A8F4A9E02D309709F00995EB
:1003F0000895FC0110820E94E201089586E791E0D1
:100400000E94F90108954F925F926F927F928F92AE
:100410009F92AF92BF92CF92DF92EF92FF920F9393
:10042000DF93CF9300D0CDB7DEB72B017A013A83AB
:1004300029838DE061E00E94AB0700E089819A8109
:100440003C01882477FC8094982C5701CC24B7FC7D
:10045000C094DC2C11C0C401B3010E9447078DE099
:1004600061E00E94CB07C601B5010E9447078DE0FD
:1004700060E00E94CB070F5F802F90E08415950508
:1004800054F30F900F90CF91DF910F91FF90EF9069
:10049000DF90CF90BF90AF909F908F907F906F90A4
:1004A0005F904F9008950F931F938C018DE061E052
:1004B0000E94AB07C80162E070E048EC50E020E920
:1004C00031E00E9403026CE271E080E090E00E9463
:1004D0004707C80162E070E041E050E024E030E00E
:1004E0000E9403026CE271E080E090E00E94470706
:1004F000C80161E070E048EC50E020E931E00E9482
:1005000003021F910F9108950F931F9308E612E0C5
:10051000C80149EF50E060E070E020E030E00E9468
:10052000D50AC80142E050E060E070E020E030E031
:100530000E94D50AC80141E050E060E070E020E090
:1005400030E00E94D50A1F910F91089588E692E04D
:1005500047EF50E060E070E020E030E00E94D50A14
:10056000089588E692E040EF50E060E070E020E01F
:1005700030E00E94D50A0895CF92DF92EF92FF9269
:100580000F931F937C0138E6C32E32E0D32EAC01CB
:10059000662757FD6095762F4F77507060707070AA
:1005A000C60120E030E00E94D50AEE0CEF2CEE1CD4
:1005B000FF080027F7FC0095102F8FE790E0A0E0E0
:1005C000B0E0E822F9220A231B23C601B801A701E3
:1005D00020E030E00E94D50A1F910F91FF90EF902C
:1005E000DF90CF90089588E692E00E944E0990E057
:1005F0000895AF92BF92CF92DF92EF92FF920F9346
:100600001F93CF93DF938C01D62EC72EB42EA22E2C
:10061000862F972F60E071E00E94AA01EC018D2DDA
:100620009C2D6FE270E00E949F01209771F07C0189
:100630000894E11CF11CE114F10439F09E012E5FD5
:10064000822F8E19D8018C930EC0AD2DBC2DFD01CB
:1006500001900020E9F7ED19EF5FD801EC932D2D03
:100660003C2DC9017C01F801808190E00E948E0040
:10067000FC01D80112969C938E9311978C91E80FF0
:10068000F11D10821196ED91FC911297B082119696
:10069000ED91FC911297A18211968D919C911297E8
:1006A0004C9150E0425050400296B7010E94900198
:1006B000DF91CF911F910F91FF90EF90DF90CF903E
:1006C000BF90AF9008951F93CF93DF93EC01888183
:1006D000882351F10E94B10288E692E049E750E098
:1006E00060E070E020E030E00E94D50AE981FA8104
:1006F00088E692E060810E940E0AE981FA8188E62C
:1007000092E061810E940E0A12E009C0E981FA813B
:10071000E10FF11D808190E00E94BC021F5F888183
:100720001817A0F30E94A602DF91CF911F910895A0
:100730001F93CF93DF93EC018E81813731F089379E
:1007400089F5CE010E94630336C08DA99EA9892B2D
:1007500091F18FA198A5019762E070E00E945E0B75
:10076000162F862F90E00E948E00AC01DC0121E064
:1007700030E011C0FE01E20FF11D96819C932F5FC6
:10078000FE01E20FF11D8681879588278795890FE5
:100790008D932F5F3F5F311768F3EDA9FEA9CA0162
:1007A000099509C0EFA9F8AD309729F06FA1615004
:1007B0002796AE010995DF91CF911F910895CF93B0
:1007C000DF93EC0188E692E00E946209AC018EA101
:1007D000882391F0473F510529F41EA2CE010E94C3
:1007E000980393C08FA198A5FE01E80FF91F4683D7
:1007F000019698A78FA389C08B81882309F446C0EE
:10080000403851050CF042C081508B83FE01E80F47
:10081000F11D4683882309F078C08C81882309F470
:1008200074C0803D49F1813D28F4803959F0803C05
:1008300059F51FC0803E19F0843F31F513C0E9A57A
:10084000FAA502C0EBA5FCA53097F1F06E8170E02F
:100850007695762F6627779567958F81680F711D3E
:100860008D8111C0E9A9FAA9309771F06E818F814D
:1008700009C0EDA5FEA502C0EFA5F8A9309721F0AB
:100880006E818D8170E009951C823FC0403F51050B
:1008900014F09A0106C09A01207F3070842F8F7067
:1008A0008D83203E3105F1F0213E310554F4203C8A
:1008B0003105D1F0203D3105B9F02039310529F558
:1008C00011C0243F310571F0253F310524F4203F4C
:1008D0003105D9F40DC0293F310599F02F3F31057D
:1008E000A1F40BC082E001C081E08B832C830DC09A
:1008F00081E08EA318A61FA208C0CE010E94E201CB
:1009000004C086E791E00E948402DF91CF910895B0
:10091000CF92DF92EF92FF920F931F936C017A01B7
:100920008B010E94530288E692E0B801A7010E9461
:1009300055086CE271E080E090E00E944707C60134
:100940000E948402C6010E9463031F910F91FF90D1
:10095000EF90DF90CF900895FC018091AF018C3033
:1009600090F480838F5F8093AF01815090E0FC0111
:10097000EE0FFF1FE80FF91FE055FE4F88EB9BE0DD
:100980009283818308958FEF80830895FC012081F5
:100990002C30C0F58181992787FD909548E850E07B
:1009A000481B590B440F551F440F551F64177507FB
:1009B00084F08281992787FD909548E552E0481B95
:1009C000590B440F551F440F551F641775070CF43E
:1009D000AB01CA01AA2797FDA095BA2F0697A109D6
:1009E000B109880F991FAA1FBB1F4FB7F89430E0B9
:1009F000F901EE0FFF1FE20FF31FE055FE4F928348
:100A000081834FBF0895AF92BF92CF92DF92EF9252
:100A1000FF920F931F93CF93DF93EC019B0182E032
:100A2000603278070CF048C077FF03C020E030E068
:100A300005C0653B710514F024EB30E000D000D018
:100A4000B901882777FD8095982F2981332727FDC5
:100A50003095B8E8AB2EB12CA21AB30AAA0CBB1C75
:100A6000AA0CBB1CCC24B7FCC094DC2CEA81FF2769
:100A7000E7FDF09528E532E02E1B3F0B220F331FD8
:100A8000220F331F442737FD4095542FEDB7FEB793
:100A9000218332834383548320E030E040E050E000
:100AA000E4EBEE2EF12C012D112D0E94EA0A9B01A0
:100AB0000F900F900F900F90CE01B9010E94C604C5
:100AC000DF91CF911F910F91FF90EF90DF90CF902A
:100AD000BF90AF900895CF92DF92EF92FF921F9355
:100AE000CF93DF93EC01162F7A01690188818C3056
:100AF00008F064C0862F61E00E94AB07888190E017
:100B0000FC01EE0FFF1FE80FF91FE055FE4F1F73AA
:100B10008081807C812B808380E292E08E199F0906
:100B200064E070E00E945E0B698380E699E08C19B6
:100B30009D0964E070E00E945E0B6A83A8818A2FA1
:100B40006CE00E94520B682F70E0AB01440F551F00
:100B5000460F571F440F551F440F551F20E030E02C
:100B6000C901840F951FFC01EE0FFF1FE80FF91F4D
:100B7000E055FE4F808186FD15C02F5F3F4F2C3022
:100B8000310571F724C01092800082E080938100CB
:100B90001092850010928400B19A80916F0082605B
:100BA00080936F008A2F90E0FC01EE0FFF1FE80F8B
:100BB000F91FE055FE4F8081806480838881DF913A
:100BC000CF911F91FF90EF90DF90CF900895672B0A
:100BD000D1F2E8CF40E252E020E639E00E946B0516
:100BE00008951F920F920FB60F9211242F933F93E7
:100BF0004F935F936F937F938F939F93AF93BF9325
:100C0000EF93FF938091D40187FF05C01092850078
:100C1000109284002BC02091D401332727FD3095FA
:100C20008091AF0190E02817390704F58091D40135
:100C3000992787FD9095FC01EE0FFF1FE80FF91F24
:100C4000E055FE4F808186FF11C08091D401992725
:100C500087FD9095FC01EE0FFF1FE80FF91FE0558F
:100C6000FE4F80818F7360E00E94CB078091D4019A
:100C70008F5F8093D4012091D401332727FD3095D5
:100C80008091AF0190E0281739070CF04EC0809199
:100C9000D4018C300CF049C0209184003091850043
:100CA0008091D401992787FD9095FC01EE0FFF1FDD
:100CB000E80FF91FE055FE4F81819281280F391FFF
:100CC00030938900209388008091D401992787FD73
:100CD0009095FC01EE0FFF1FE80FF91FE055FE4F46
:100CE000808186FF2AC08091D401992787FD909545
:100CF000FC01EE0FFF1FE80FF91FE055FE4F80814A
:100D00008F7361E00E94CB0718C080E49CE905C0A6
:100D1000809184009091850004969093890080933F
:100D200088008FEF8093D40108C080918400909157
:100D3000850084549C4948F3EBCFFF91EF91BF911C
:100D4000AF919F918F917F916F915F914F913F9163
:100D50002F910F900FBE0F901F90189585ED91E089
:100D60000E94AC0488ED91E00E94AC04089504C098
:100D700086E791E00E94DF0386E791E00E94F3029C
:100D8000892BB1F708950F931F9306E711E0C8016F
:100D900065E071E040E022E00E94F902C80160EEE7
:100DA00041EF56E00E94C40185ED91E069E070E0FA
:100DB0000E94EA0588ED91E06BE070E00E94EA0590
:100DC000C80140E051EE60E070E00E9488041F918D
:100DD0000F9108950E9471070E94C3060E94B706F2
:100DE000FDCF893029F485ED91E00E940305089537
:100DF0008B3021F488ED91E00E94030508951F9245
:100E00000F920FB60F9211242F933F938F939F93BE
:100E1000AF93BF938091DF019091E001A091E10138
:100E2000B091E2013091E3010196A11DB11D232F84
:100E30002D5F2D3720F02D570196A11DB11D209358
:100E4000E3018093DF019093E001A093E101B0936F
:100E5000E2018091DB019091DC01A091DD01B09174
:100E6000DE010196A11DB11D8093DB019093DC0191
:100E7000A093DD01B093DE01BF91AF919F918F915F
:100E80003F912F910F900FBE0F901F901895EF92EA
:100E9000FF920F931F937B018C018FB7F8944091C1
:100EA000DF015091E0016091E1017091E2018FBF9B
:100EB0002FB7F8948091DF019091E001A091E101BA
:100EC000B091E2012FBF841B950BA60BB70BE81660
:100ED000F9060A071B0760F71F910F91FF90EF902B
:100EE0000895789484B5826084BD84B5816084BDA2
:100EF00085B5826085BD85B5816085BDEEE6F0E093
:100F0000808181608083E1E8F0E08081826080837D
:100F1000808181608083E0E8F0E08081816080836F
:100F2000E1EBF0E0808184608083E0EBF0E08081A1
:100F300081608083EAE7F0E0808184608083808143
:100F400082608083808181608083808180688083EB
:100F50001092C1000895282F30E0C90186569F4F96
:100F6000FC0194912A573F4FF9018491882391F015
:100F7000E82FF0E0EE0FFF1FE859FF4FA591B49165
:100F8000662329F48C91909589238C9308958C91F4
:100F9000892B8C930895482F50E0CA0182559F4FAA
:100FA000FC012491CA0186569F4FFC0194914A5737
:100FB0005F4FFA0134913323D1F1222331F12330F1
:100FC00021F4809180008F7705C0243031F4809126
:100FD00080008F7D8093800018C0213019F484B583
:100FE0008F7704C0223021F484B58F7D84BD0DC07D
:100FF000263021F48091B0008F7705C0273029F486
:101000008091B0008F7D8093B000E32FF0E0EE0F71
:10101000FF1FEE58FF4FA591B491662329F48C91E0
:10102000909589238C9308958C91892B8C930895A6
:101030001F920F920FB60F9211242F933F934F934D
:101040005F936F937F938F939F93AF93BF93EF9330
:10105000FF934091C600E0916402F0916502CF01D8
:10106000019660E870E00E945E0B9C018091660230
:10107000909167022817390739F0EC51FE4F4083F1
:101080003093650220936402FF91EF91BF91AF917D
:101090009F918F917F916F915F914F913F912F9190
:1010A0000F900FBE0F901F9018955F926F927F92D6
:1010B0008F929F92AF92BF92CF92DF92EF92FF9268
:1010C0000F931F93CF93DF93EC013A014B0141340F
:1010D00082E458078FE0680780E078070CF07FC053
:1010E00060E874E88EE190E0A40193010E94930B04
:1010F0002150304040405040CA01B90122E030E068
:1011000040E050E00E94930B59016A01A60195014D
:10111000209530954095509594E0220F331F441F41
:10112000551F9A95D1F760E074E284EF90E00E9439
:10113000930BCA01B9012FEF30E040E050E00E946C
:10114000330BA40193010E94930BC90181509F4F5F
:10115000181619061CF4522E5A9403C055245394A1
:10116000521A60E079E08DE390E0A40193010E94BF
:10117000930B2150304040405040CA01B90122E059
:1011800030E040E050E00E94930B20953095409570
:10119000509583E0220F331F441F551F8A95D1F7C6
:1011A00060E074E284EF90E00E94930BCA01B90101
:1011B0002FEF30E040E050E00E94330BA401930198
:1011C0000E94930BC90181509F4F181619061CF4F9
:1011D000822F815002C081E0821B851500F5E885D1
:1011E000F98581E090E00A8802C0880F991F0A946F
:1011F000E2F7808360E079E08DE390E0A401930161
:101200000E94930B2150304040405040CA01B90128
:1012100022E030E040E050E00E94930B04C0E885FB
:10122000F98510829501EC81FD813083EE81FF818B
:101230002083EA85FB85208141E050E0CA010E84CD
:1012400002C0880F991F0A94E2F7282B2083EA85B1
:10125000FB852081CA010F8402C0880F991F0A9460
:10126000E2F7282B2083EA85FB858081088802C06D
:10127000440F551F0A94E2F7842B8083DF91CF91AE
:101280001F910F91FF90EF90DF90CF90BF90AF90A4
:101290009F908F907F906F905F900895DC011296E1
:1012A000ED91FC911397E058FF4F819191918058F7
:1012B0009F4F20813181821B930B60E870E00E9478
:1012C0005E0B0895CF93DF93DC011296ED91FC91B4
:1012D0001397EF01CE57DF4F48815981E058FF4FF8
:1012E00080819181E058F0408417950719F42FEF21
:1012F0003FEF0CC0E40FF51F2081CA01019660E8A2
:1013000070E00E945E0B9983888330E0C901DF9111
:10131000CF910895FC01A085B18521898C9190E041
:10132000022E02C0959587950A94E2F780FFF6CFCA
:101330000484F585E02D6083089580E791E0909323
:1013400069028093680284EE91E090936B0280932F
:101350006A0285EC90E090936D0280936C0284ECBD
:1013600090E090936F0280936E0280EC90E09093F7
:1013700071028093700281EC90E0909373028093ED
:10138000720286EC90E0909375028093740284E080
:101390008093760283E08093770287E080937802DF
:1013A00085E08093790281E080937A0208950F931B
:1013B0001F93CF93DF938C01EB0109C02196D801D5
:1013C000ED91FC910190F081E02DC80109956881B3
:1013D0006623A1F7DF91CF911F910F910895EF92AE
:1013E000FF920F931F93CF93DF938C017B01EA0150
:1013F0000CC0D7016D917D01D801ED91FC91019058
:10140000F081E02DC80109952197209791F7DF9190
:10141000CF911F910F91FF90EF900895DC01ED9116
:10142000FC910190F081E02D099508952F923F9253
:101430004F925F926F927F928F929F92AF92BF92E4
:10144000CF92DF92EF92FF920F931F93DF93CF9390
:10145000CDB7DEB7A0970FB6F894DEBF0FBECDBFF5
:101460001C016A017B01411551056105710549F4B3
:10147000DC01ED91FC910190F081E02D60E3099594
:1014800054C0882499245401422E5524662477247C
:1014900001E010E00C0F1D1F080D191DC701B6015A
:1014A000A30192010E94710BF80160830894811CD2
:1014B000911CA11CB11CC701B601A30192010E949D
:1014C000710BC901DA016C017D01C114D104E10481
:1014D000F104F1F681E0E82EF12CEC0EFD1EE80C93
:1014E000F91C3E010894611C711CD501C4010197CF
:1014F000A109B1096C01C818D90814C0F601EE0D94
:10150000FF1D60816A3010F4605D01C0695CD1012B
:10151000ED91FC910190F081E02DC10109950894B5
:10152000E108F1086E147F0449F7A0960FB6F8940D
:10153000DEBF0FBECDBFCF91DF911F910F91FF9006
:10154000EF90DF90CF90BF90AF909F908F907F9063
:101550006F905F904F903F902F900895EF92FF9281
:101560000F931F93CF93DF93EC017A018B0177FFE9
:101570000FC0E881F9810190F081E02D6DE20995BD
:1015800010950095F094E094E11CF11C011D111DD3
:10159000CE01B801A7012AE00E94160ADF91CF917F
:1015A0001F910F91FF90EF900895DC0121153105F7
:1015B00041F4ED91FC910190F081E02D642F0995AB
:1015C00008952A30310519F40E94AE0A08950E9448
:1015D000160A08952F923F924F925F926F927F92D8
:1015E0008F929F92AF92BF92CF92DF92EF92FF9233
:1015F0000F931F93DF93CF93CDB7DEB73B014C0121
:1016000019012A016D897E898F89988D6A197B0954
:101610008C099D09621A730A840A950AA401930130
:101620000E94330BE218F30804091509A801970179
:101630000E94930B2A0D3B1D4C1D5D1DB901CA0173
:10164000CF91DF911F910F91FF90EF90DF90CF909E
:10165000BF90AF909F908F907F906F905F904F90D2
:101660003F902F900895629FD001739FF001829F59
:10167000E00DF11D649FE00DF11D929FF00D839F21
:10168000F00D749FF00D659FF00D9927729FB00DBE
:10169000E11DF91F639FB00DE11DF91FBD01CF01D1
:1016A00011240895991B79E004C0991F961708F03A
:1016B000961B881F7A95C9F78095089597FB092E88
:1016C00007260AD077FD04D049D006D000201AF4AE
:1016D000709561957F4F0895F6F7909581959F4F8E
:1016E0000895A1E21A2EAA1BBB1BFD010DC0AA1F63
:1016F000BB1FEE1FFF1FA217B307E407F50720F07B
:10170000A21BB30BE40BF50B661F771F881F991FF5
:101710001A9469F760957095809590959B01AC013E
:10172000BD01CF01089597FB092E05260ED057FD68
:1017300004D0D7DF0AD0001C38F45095409530957E
:1017400021953F4F4F4F5F4F0895F6F79095809545
:10175000709561957F4F8F4F9F4F0895AA1BBB1BBC
:1017600051E107C0AA1FBB1FA617B70710F0A61BA1
:10177000B70B881F991F5A95A9F780959095BC01C2
:10178000CD010895EE0FFF1F0590F491E02D09940F
:04179000F894FFCFFB
:101794002E637070002F55736572732F6D61636FC4
:1017A40077656C6C2F64697962696F2F6861726404
:1017B400776172652F7563616D2F7563616D2F415C
:1017C400726475696E6F2F536572766F4669726DB8
:1017D4006174615F395F31312F6170706C65742F92
:1017E400536572766F4669726D6174615F395F31FA
:1017F400312E6370700020007F02000000000000A2
:061804008A09D709EF0973
:00000001FF
